:100000000C9434000C943E000C943E000C943E0082
:100010000C943E000C943E000C943E000C943E0068
:100020000C943E000C943E000C943E000C943E0058
:100030000C943E000C943E000C943E000C943E0048
:100040000C943E000C943E000C943E000C943E0038
:100050000C943E000C943E000C943E000C943E0028
:100060000C943E000C943E0011241FBECFEFD8E04C
:10007000DEBFCDBF0E9440000C946E000C940000C7
:100080008FEF84B987E085B92FE53AEE40E0215043
:1000900030404040E1F700C0000085E090E025B12D
:1000A000220F25B92FE53AEE40E021503040404084
:1000B000E1F700C00000019791F785E090E025B1DD
:1000C000269525B92FE53AEE40E0215030404040DA
:1000D000E1F700C00000019791F7DFCFF894FFCF60
:00000001FF
