:100000000C9434000C943E000C943E000C943E0082
:100010000C943E000C943E000C943E000C943E0068
:100020000C943E000C943E000C943E000C943E0058
:100030000C943E000C943E000C943E000C943E0048
:100040000C943E000C943E000C943E000C943E0038
:100050000C943E000C943E000C943E000C943E0028
:100060000C943E000C943E0011241FBECFEFD8E04C
:10007000DEBFCDBF0E945F000C946D000C940000A9
:100080001092C5008CE08093C400E0ECF0E0808129
:100090008260808388E18093C10086E08093C20003
:1000A00008959091C00095FFFCCF8093C6000895FD
:1000B0008091C00087FFFCCF8091C60008958FEF2C
:1000C00084B90E94400081E30E9451000E945800C0
:0E00D000C82F0E945100C5B9F9CFF894FFCF98
:00000001FF
