:100000000C9434000C943E000C943E000C943E0082
:100010000C943E000C943E000C943E000C943E0068
:100020000C943E000C943E000C943E000C943E0058
:100030000C943E000C943E000C943E000C943E0048
:100040000C943E000C943E000C943E000C943E0038
:100050000C943E000C943E000C943E000C943E0028
:100060000C943E000C943E0011241FBECFEFD8E04C
:10007000DEBFCDBF0E9451000C9464000C940000C0
:100080004A990DC089EF90E00197F1F700C0000098
:1000900089B182FB882780F991E08927089580E063
:1000A00008958FEF84B985B91AB85A9AC0E00E94B2
:1000B0004000882339F08C2FC11104C085B1809590
:0C00C00085B981E0C82FF3CFF894FFCF82
:00000001FF
